S0150000755356435F52656462616C6C732E7372656326
S214002000D87F002001210000FD200000FD200000F8
S21400201000000000000000000000000000000000BB
S214002020000000000000000000000000FD2000008E
S2140020300000000000000000FD200000FD20000061
S214002040FD200000FD200000FD200000FD20000017
S214002050FD200000FD200000FD200000FD20000007
S214002060B5460100FD200000FD200000FD20000018
S214002070FD2000000000000000000000FD20000021
S21400208021000020FD200000FD200000FD200000B3
S214002090FD2000000000000000000000FD20000001
S2140020A0FD200000FD200000FD200000FD200000B7
S2140020B00000000010B5064C2378002B07D1054B16
S2140020C0002B02D0044800E000BF0123237010BD9F
S2140020D0F00B002000000000809F0300044B10B5AA
S2140020E0002B03D00349044800E000BF10BDC046E3
S2140020F000000000F40B0020809F0300FEE7C046AF
S21400210025492648F8B5814209D0254A904206D28C
S214002110013A121A920801329200224B984722483E
S214002120224A904207D2013A121A920801329200CD
S21400213000211F4B9847FF221E4B022193431E4A45
S21400214003259360902302240C2708261B4A5B0075
S214002150D1501B4AD378AB432343D370D378BB43C9
S2140021603343D3703022174B987B90432022104382
S2140021709873997BB9433143997380219A7BAA431C
S21400218022439A73104A53680B4353600F4B984789
S2140021900F4B9847FEE7C046809F030010000020C4
S2140021A0EC0B0020095F0100F00B0020587B00209C
S2140021B01B5F01000020000000ED00E00070004101
S2140021C0005000410048004100400041C15E01004F
S2140021D0F90D010010B5031E04D18020C0050029AA
S2140021E03CDD10BD002905D10020002BF9DC802045
S2140021F00006F6E7C8170A184240934219DADC17B9
S2140022001819604081422CDC82423ADC21D0080258
S2140022101900274B98470130FF30C30F1B185B107F
S214002220244A5B00985E80231B069C46800360441D
S214002230D7E7934235D0080219001D4B9847431C38
S214002240FF33D80FC01840101A4B4000C05E800302
S214002250C7E7002928DDC020C005C2E7C020000669
S214002260BFE71802124B98470130FF30C30F1B1808
S21400227080205B100F4A5B009B5EC0059B03C01A64
S214002280AFE718020A4B98470130FF30C30F1B1800
S214002290C0205B10074A5B009B5E00069B03C01ACB
S2140022A09FE7802080059CE7A020000699E7C046AF
S2140022B0F5590100385F010010B5041E0DD0084B1B
S2140022C09847192301221B1A9343DC40054A6400F1
S2140022D0A05A5B109840001110BD0020FCE7C046D5
S2140022E0CD5B0100788D0200F0B54E464546DE46D1
S2140022F05746A022544BE0B55E689B685200944651
S2140023001A0085B0C8320392DA100293D3069B1ADD
S2140023109B009B1A9B009B1A5B00F2109B1A4B4A71
S214002320AA2190464A4A43445B009B18A022019388
S214002330782352000025012091469846454BB44428
S214002340C900039A424552DB0F00029AB246283F64
S2140023500E00424526DCE72109018B4607210400D2
S21400236039408C40DA191570FA109A185A441178C8
S2140023700137A1431170B742EDD131000C0056462B
S21400238061460022A446019F964203DC914201DB8F
S214002390314C3C80083202374A45F5D162468C46BD
S2140023A0110013E0E72109018B460721040039409C
S2140023B08C40DA191570FA109A185A4411780137B9
S2140023C0A1431170B742EDD131005646082292461D
S2140023D0019AD0445432019242465831F82AB0D17C
S2140023E005B03CBC90469946A246AB46F0BD0F00F1
S2140023F0029AB246283F0E00424512DDE721090147
S2140024008B460721040039408C40DA191570FA1003
S2140024109A185A4411780137A1431170B742EDD18A
S214002420D2E7E72109018B460721040039408C409A
S214002430DA191570FA109A185A4411780137A14320
S2140024401170B742EDD1BFE7982100207602000058
S214002450CC33002058110020583C0020F0B54E46E2
S2140024604546DE465746E0B583B088460CA909784F
S214002470060089460DA90878002B00D170E080324E
S21400248051003A4A3A4F94464A461501AA18920015
S21400249062442E321478A2001219D200BC18648C42
S2140024A0BA582402920601D4444324124A00013149
S2140024B0FF31304F8905490DBA5E4D447F5EAD0051
S2140024C0F91765448B46698DD017890531D52A4D95
S2140024D0002B2AD10195E3179A46284B5146994678
S2140024E003002000C8474904C00B0843B0603A0008
S2140024F05B4620005146C84742461268019B9446F8
S214002500634433601C4A434694465B684904C00BE8
S2140025100843634440425D19F060756003B03CBCFC
S21400252090469946A246AB46F0BD8023DB02019357
S214002530D1E7910B95044904ED0B0D43591E8B41D1
S21400254080215B4209030B400B498C466344EB1821
S2140025500193BD04BB0B5B04ED0B1D436D42BAE754
S2140025608021FF31891A49008BE7C046EC740100D0
S2140025702C790100B80402000000FCFF515C010049
S214002580F0B5DE46454657464E46E0B591B0039157
S214002590837C04009B4640235A461A408846009295
S2140025A000D0D7E103687C4F99468368C668190057
S2140025B00293436830009A46784B50441B7801904B
S2140025C05A019446764B0592634418255A5F3B7829
S2140025D0D21A53461D1443460732002B1DD103144E
S2140025E093421ADD0B00AA4200DAE6E080230322BB
S2140025F05B026C4DFF210F20A847684BE6681B78EE
S2140026005A019446664B0592634418229A5E3B78BC
S214002610D21A636807329A461D14AA4200DACBE043
S214002620059A5F4B94466344DB68DB69B34200DA85
S2140026309AE101235A461340920600D4DCE00222B7
S214002640A15E6A1C90465022FF320491904500D944
S21400265029E2554A914202DCCA43D2170A40E726CD
S214002660414658203601B4460726C9104143D010CB
S21400267009184E48CF10C71967443F780E403741B7
S2140026800126415C374006978C4600D0F2E15007A1
S214002690860F4746B046664607207601B446384061
S2140026A08000404484446746414E0796F65DB44633
S2140026B00126324000D0D9E10F26B046664647468E
S2140026C03E40B4466646002E01D00026E660002B4B
S2140026D000D0C6E002235946029A0B404A440292B2
S2140026E0002B00D113E1002A00DAC9E1314B9A42EF
S2140026F000DDC5E1019B11001B1499464A46D51C16
S214002700CA1401924A03920F0B3B0492CA0300D5E7
S2140027105CE24946502205915146FF329046234AD4
S2140027200026944607270691A14630E05821DA1085
S2140027304A430199E7248A4624015244A246614648
S214002740D010604450440078895C3A401041012221
S214002750024202D08022520011433A001A409200F0
S21400276049015118049A9246114A5144525C0F216D
S21400277011420ED0072E00DD74E3059A053A9A4200
S21400278000DC7CE1002601339D4200DAD3E24345BB
S214002790CCD90136F7E7C04610000020220C0020F6
S2140027A06C880100B91C0100BF020000581100200F
S2140027B0583C00200000BF02A3681800DF175B0F1C
S2140027C09C463900FB006746C2003B43121A8B4109
S2140027D0100D1903170308434304FA0B1A43D44B8E
S2140027E0A2609E4200DC24E70133E3605A460123E0
S2140027F01340920600D522E7002B00D16AE7022399
S214002800E15E5023681CFF33049198423AD8C94AC7
S214002810914202DCCA43D2170A405821C3104B43E8
S214002820D1105B18C4490E000796B446E726360159
S214002830B046D910614441440F7807210E001E406F
S21400284037410126B0460840414637405607B60F86
S214002850B4460A4007998000C95CB84B06976044A6
S2140028600793069B002B02D080235B001943490187
S214002870079B09185B5C002A00D118E11B09002B96
S21400288000D00DE15023FF339D4230D8A94B049A67
S2140028901E009A4203DCD343DB171A401600534649
S2140028A0E721DA14582309018C4607215343F21016
S2140028B09B18A148DA1082186244127819400A411F
S2140028C0C15CD30702D580235B00194307232B4046
S2140028D09B00720749015918920F984B8A189B5C07
S2140028E0F20700D4E6E01B09002B00D0D8E07F23D7
S2140028F05A469A4304231A43934602235946A2741F
S214002900029A0B404A440292002B00D0EBE60C22BF
S2140029100A422BD153460193894A8A4B94461B7828
S2140029205B01634418215A5E019912048A4200DA58
S214002930B0E016215B5E22681B0406339A4200DD77
S214002940A8E01214931D00DAA4E00123A27C9343AE
S214002950009301E000230093009811B03CBC904621
S2140029609946A246AB46F0BDE36062E6E268110017
S2140029700892A022D202914200DCA6E05A465207F4
S21400298000D523747F235A4605999A4308238C461C
S2140029901A436B4BA2746344DB68934628215B5E44
S2140029A0A268934200DB53E1019B1B14994608235F
S2140029B00B93073B0A93EB1F0993994500DA00E156
S2140029C0029B5C4A1B14934200DCACE11300DA1055
S2140029D004925A07920F069201221A400C92099D01
S2140029E000D0BBE15023FF339846493BFF3B9C4653
S2140029F0063B9A465B460D944F4E504F0E934C4600
S214002A0030E05821EB104B43049989464B44F15C67
S214002A10D8100791E72109018B46614630185844C3
S214002A2000780B4018415346B146034200D070E18F
S214002A30079963462B409B0049015918069B0F20B7
S214002A409B465944795C08420ED0072A00DD0FE207
S214002A5021000839A94200DC64E200220135AC42BC
S214002A6000DA79E14545CCD90132F7E76646360902
S214002A70B44627E6802040000843844607E64C46D6
S214002A807F235A469A43130003221343A37400235A
S214002A90A36061E7039B002B0FD04023A3745BE782
S214002AA00023E36058E7002B00D0EBE612E60F2287
S214002AB01340E4E60F22134016E7802303225B024E
S214002AC0FF21214D1420A847E7E70823594619405F
S214002AD00A9100D010E100230B93019B1B1499462A
S214002AE0089B002B00DB66E74B46073BAB4268DCE7
S214002AF0029A104912148A4200DC18E10A00D1102A
S214002B0004915107890F06910020D20700D567E18E
S214002B105022FF329046493AFF3A9446063A924689
S214002B204A460994044E2C00044F0A9205003AE0E7
S214002B30FF7F0000BF02000058110020583C002014
S214002B406C880100220C0020B91C01005821DA1004
S214002B504A43049989464A44B15CD0100791E7215C
S214002B6009018B4661463018584400780A401041E7
S214002B705246B146024200D0D0E0079962461A405B
S214002B80920049015118069A0F2093465944795CE1
S214002B9008420AD0E11F994200DC78E200250133A2
S214002BA09C4200DA5CE14345D0D90135072DF6DDBD
S214002BB00A9A099C9A4202D0089A5242E2601B0482
S214002BC00193019B6360029B2360A5E65022FF32BF
S214002BD09446CC4A002090464A46053A059252460C
S214002BE0A146C94F07262C0006922DE05821DA1080
S214002BF04A430199E7258A462D015244AA463500E4
S214002C00D110791851440978154029410125BA5C3C
S214002C100D4202D0802149000A4331001940890044
S214002C2052018A1804998A46414652448A5C12091F
S214002C300CD0072800DD15E1059A9A4200DC1EE755
S214002C4000200133A34276DC6345CFD90130F8E794
S214002C5008210B915B420121934200DC0021CBB29C
S214002C600A93AA4808998446A94B6144994200D918
S214002C7033E762449A4200D92FE75023FF339D4240
S214002C8000D92AE70223E65EA24B9E4200DCE7E17B
S214002C901E005346E721DA14582309018C46072103
S214002CA05343F2109B189848DA1082186244127840
S214002CB019400A41C15CD30702D580235B00194343
S214002CC007232B4072079B004901920F5B189B1845
S214002CD08C4AD35CF20700D47FE21B09002B00D19C
S214002CE0FBE67F22A37C934301221343A3740023B5
S214002CF0A360E36000932FE60598874B8446634401
S214002D00DB68A26828201B5E9A4200DD11E30B9167
S214002D10A0E7802307995B0019438AE6802207997B
S214002D20520011432AE7DA43D21713404FE6D14345
S214002D30C9170A40E3E6069B5A469A467F239A43FB
S214002D40130004224C461343A3740023A360029B83
S214002D50236053460193DFE50D9C32E75023FF3393
S214002D609C464F3BFF3B9846093B4B4407935B46CC
S214002D70002265480727634E0E930D942CE05821D9
S214002D80E724EB104B43049924018A46A3463C00F3
S214002D905344D9104118594409781C402141C45C59
S214002DA0434682460B4202D080235B001C433B0016
S214002DB006992B408B469B0064011B195B44F35C11
S214002DC01B090BD0072A53DC079BAB4200DC10E143
S214002DD000220135A945BFDB6545D0D90132F8E7A9
S214002DE05022FF329046F73A9246513A9446EA1FEE
S214002DF007924A460994444E424F0A922C0029E014
S214002E005146E725DA104A4304992D018946AB4618
S214002E1065464A44D110711859440978154029412D
S214002E20B55C0122B1460A4201D0FF321543624624
S214002E3006991A408B4692006D0152195A44BA5CA4
S214002E40120909D0079A9A4200DC80E1002001337B
S214002E50A34205DC4345D3D901300728F7DDA7E6B2
S214002E60099CAEE64C461B046360029B236073E538
S214002E7004260E9B0D9C9B461E400CD07F235A4674
S214002E809A43130001221343A3740023E360A36054
S214002E902B04019395E60B9B002B00D191E61E4A6E
S214002EA02B0494460193059B089A6344DF681B49EC
S214002EB0D3178846B88C0021C0470904000C084385
S214002EC04542A368E560D917FA8C0023A068C0477E
S214002ED00E4B0904000C0843C2180D4B9A4200D84A
S214002EE001E20F4BA0609D4200DA02E2E660002895
S214002EF000D066E67F235A469A4313000122134306
S214002F00A3745EE6583C002058110020FF0F000016
S214002F10FE1F0000BF0200006C880100515C01002B
S214002F2001F0FFFF49460F910E99A1468B460D9C76
S214002F3007970A9B002B02D0072A00D150E1D54AFA
S214002F40059B94466344DB68A2680493D117A06887
S214002F505A8CD14D0023A8470904000C084343426D
S214002F600593A360CD4A236802931B1493423CDD6D
S214002F7013005025DA105F079446BF0FFF35DB07B6
S214002F803ED558239846A83301935B460721012671
S214002F90BB460694099A0F9C0A93AA421CD8E727B8
S214002FA040463F01BA460F00D31043436344D8104F
S214002FB02018504400781F403841E35C064201D098
S214002FC0019803430800104080005B01C31807986F
S214002FD05B44C35C1B0947D101329145DDDA069C90
S214002FE00992099B1B040193EBE5DA43D2171340C1
S214002FF0BFE70E9B0D9C9B46534607960F9398E79C
S214003000012301930E339A465B460720BB46099A76
S2140030100F9F0A930694AA421ED8E7265821360127
S214003020B046D3104B436344DC103C194444247828
S214003030F95C03401C41019B234202D080235B00C5
S2140030401943030013409B0049015918079B594434
S2140030505B5C5146194207D101329145DBDABEE787
S214003060F343DB171E4014E604250A9B09929B4691
S214003070069C1D4000D117E17F235A469A43130051
S21400308001221343A3740023E360A360A9E74B4621
S2140030900F930A9B25009946099C07977D4A059B36
S2140030A094466344DB68A268588CA3680021DB174B
S2140030B0794EB0470904000C084323684042A060DC
S2140030C002934D453CDB754A1B1493423BDD1300CF
S2140030D0DA1092465A07920F93462A00083ADB0700
S2140030E03DD458230193573B0726984604940F9CDB
S2140030F05023FF339A421ED8E7273F01BC4601996A
S214003100D3104B435344D810201860440078E15C39
S214003110334018414346034202D080235B001943E4
S214003120330013409B0049015918079B59445B5CC8
S2140031300F21194242D1013D013A4D45D8DA049C8F
S2140031402B0401933DE5DA43D2171340C0E74B4604
S2140031500F930A9B25009946099C07979EE75823DC
S21400316050270193573B0720984604940F9CFF373F
S214003170BA421ED8E7263601B44606000199D31097
S2140031804B435344D9106118614409781E403141BD
S2140031904646E35C0E4202D0802149000B43010004
S2140031A0114089005B01CB1807995B44CB5C1B0977
S2140031B004D1013D013A4D45DADAC0E7089B049C8C
S2140031C05B42E360802303225B02FF210720344E2C
S2140031D0B047236801350293B2E70F2213407DE51E
S2140031E0280050230838FF33984227D8F73BC110F1
S2140031F05943049B0F9E9C46E7276144B446CB1078
S2140032003F016344BC4663441B780A401341725C2A
S214003210DB0702D580235B001A43072303405201D5
S2140032209B009B18069A9446079A6344D35C0C9AB4
S214003230002A66D01B09002B00D080E6154A059BA5
S21400324094466344DB68144928229F5E089A988C4B
S2140032508846D3170021C047A6680904030C0B4311
S2140032609946002E50DDF01B0E4A0023C117C047BA
S2140032704A46000C0B040343D0184042A360029B4E
S214003280013D23600A9B2D04E06065600093FFF714
S21400329063FBC0466C880100515C0100BF02000061
S2140032A0B91C010005B500000B9B002B00D198E669
S2140032B0049B089A988C0021D317204EB047090427
S2140032C0000C08431E4B4042E060984227DB059BFB
S2140032D0E560002B00D084E65A467F339A437E3B57
S2140032E01343A3747DE6164BA6609D4201DBE660A1
S2140032F000E6802303225B02FF21124D0720A84729
S2140033005FE40F22134096E7F0190F4A0023C11717
S214003310C0474A46000C0B040343981AAEE78023C6
S21400332003225B02FF210720064DA847236802936D
S21400333057E60A9B0B9301230A9392E4515C010023
S21400334001F0FFFFB91C010005B50000F0B55746B7
S2140033504E464546DE46E0B583B001917F23040025
S2140033609246827C40206A4E0F0035683168ADB2C6
S21400337099467B3B984600951040514500D3C2E0E5
S21400338033680099994200D974E23568ABB200936D
S214003390002800D0B9E0032313403ED0002F3CD1D4
S2140033A052B2D2434B46D2179A438132A274677404
S2140033B0A760130700D400E2237C0133DBB2012BA5
S2140033C000D849E20022637C22740133DBB20F2B63
S2140033D000D84CE24F4B6274DA7838009208012A23
S2140033E052D10022995E0222A75E0625625FCF1B9D
S2140033F07F43BC465988043A890589158A1A524380
S2140034006244642A40DC4023A374012003B03CBC21
S21400341090469946A246AB46F0BD511E012900D8FB
S2140034204FE111007F31C9B2012900D9C7E1012F50
S21400343000D114E2812A00D1D4E1822A00D045E1ED
S214003440022F00D1ABE1032F00D1ECE1434613423B
S21400345000D060E10820104000D05CE193070ED554
S214003460237C0133DBB2012B00D852E10022637CBF
S21400347022740133DBB20B2B00D9CCE16374254BED
S214003480DA789208012AACD0DA799208012A43D079
S214003490DA7A9208012A56D0DA7B9208012A69D095
S2140034A0DA7C9208012A00D17CE0DA7D9208012AB3
S2140034B000D18FE0DA7E9208012A00D1A2E0DA7FFE
S2140034C09208012A00D1B5E023229A5C9208012ACC
S2140034D000D1C8E027229A5C9208012A00D1DBE0DE
S2140034E00C234027A27C13400343DBB21740002B7B
S2140034F000D1EBE1002F00D087E740203168104074
S214003500514500D23CE7009DB5E10020B7E7C04634
S21400351050320020602200200422995E0222A75E1C
S2140035200625625FCF1B7F43BC46D988043A8905CF
S21400353089158A1A52436244642A00DC63E7DA7A01
S2140035409208012AA8D10822995E0222A75E0625C3
S214003550625FCF1B7F43BC465989043A89058915AB
S2140035608A1A52436244642A00DC4CE7DA7B9208EB
S214003570012A95D10C22995E0222A75E0625625F7B
S214003580CF1B7F43BC46D989043A890589158A1A18
S21400359052436244642A00DC35E7DA7C9208012A4A
S2140035A000D082E71022995E0222A75E0625625F9F
S2140035B0CF1B7F43BC46598A043A890589158A1A67
S2140035C052436244642A00DC1DE7DA7D9208012A31
S2140035D000D06FE71422995E0222A75E0625625F7E
S2140035E0CF1B7F43BC46D98A043A890589158A1AB7
S2140035F052436244642A00DC05E7DA7E9208012A18
S21400360000D05CE71822995E0222A75E0625625F5C
S214003610CF1B7F43BC46598B043A890589158A1A05
S21400362052436244642A00DCEDE6DA7F9208012AFF
S21400363000D049E71C22995E0222A75E0625625F3B
S214003640CF1B7F43BC46D98B043A890589158A1A55
S21400365052436244642A00DCD5E623229A5C920830
S214003660012A00D036E72022995E0222A75E0625B0
S214003670625FCF1B7F43BC46598C043A8905891587
S2140036808A1A52436244642A00DCBCE627229A5C0B
S2140036909208012A00D023E72422995E0225625F61
S2140036A0891ADA8C0625635F92059215043BD31AB5
S2140036B049435B43CB18642B00DD11E74023A3741A
S2140036C0A3E6022F00D1A8E0012A7BD0022A00D16F
S2140036D09EE0002B00D1B9E6032F00D0B6E653B229
S2140036E01A0049468A4304210A437A49DB43E160CB
S2140036F000212182802149028C460227DB175B04C9
S214003700D2B26344A360A27417400123002F00D1F5
S2140037109BE02374B3E60623E75E50230137FF33AE
S214003720E1689F4232D80223E25E6B4B9A426BDD21
S2140037301A005823E725F8104343D0101B18674893
S2140037402D018446AB460725D810604458440078BF
S2140037501D4028416546EB5C9C46C30704D5802384
S21400376060465B0018438446072365463B40500787
S2140037709B006F01800FDB191B185948C35CD207EA
S21400378072D51B09002B01D0002908DA554B1A7890
S214003790554B52019B18DB681B8C5918E160534B44
S2140037A00121200098470223A27C1340002B00D062
S2140037B056E60700130700D5FEE538005FE6012A47
S2140037C000D037E6012F76D0032F00D03EE64B46DA
S2140037D09A4343461A433F4BA274E3600023238276
S2140037E0434B2BE0022F00D02DE6002323828233AA
S2140037F0A37480231B02A36001213C4B2000984742
S2140038003B00A27C1340D1E7D343DB171A4090E776
S214003810012FD9D1C3E7627431E68123A374002354
S2140038206374A3602BE64B469A4304231A43294B42
S214003830A274E3600023238280235B020227A36036
S21400384017400123002F00D063E70820104000D166
S21400385015E6237C0133DBB2237438000FE6002321
S214003860A7746374A3600AE60F2213408AE76374A2
S214003870380004E60D00002800D0C6E5194B19787C
S214003880194B49015B1818215B5E1A4909785B1AC7
S2140038900621615E07338B4200DAB6E5019B013BE9
S2140038A0012B0ED93368534503D233689D4200D8A6
S2140038B0ACE50320AAE5002301372382A7740E4B4C
S2140038C099E7D2439307EDD102209FE5009D38008B
S2140038D0D1E7C0460000FDFFBF02000058110020DF
S2140038E0583C0020220C00206C8801008125000036
S2140038F00000FFFF100000200080FFFFF0B54E46DE
S214003900DE4657464546E0B5B64B97B094460A9114
S21400391019000293D30099469B1A9B0063448C4679
S2140039200392182263449A560D900F929B7E002AAB
S21400393067DB834606909B44039A4B4694469B1A45
S214003940029A9B0063449446192263449A561100D7
S2140039501092DA7E002908DB1B7F7F2B05D80A9B96
S2140039609C4662440592079306E00A9B9A1A013227
S2140039700133059313000792059A93422EDA5824D2
S214003980994A069907278A469C46594693465C43B9
S214003990049215198A4518DA6346292B15D852461B
S2140039A0572A0FD8E7263601B0461019C3105B44D5
S2140039B043441B78384003410120184219D1AB5CC0
S2140039C0002B16D101329142EAD16346059A0133A3
S2140039D0583558349A421AD09C46DBE7039A9446E8
S2140039E0930063445B00814A63449B5C181E00D0CE
S2140039F077E0002017B03CBC90469946A246AB46FE
S214003A00F0BDC31A01330693431C9B4694E7784ADD
S214003A108B465168926863469446C8220800624402
S214003A20019262464130FF30039C0990D0104A460E
S214003A30A046121B9200069C4244121B91462A2264
S214003A400891C910884642430B9142446949520086
S214003A508A1A1292002292460C905A4650469B466C
S214003A602300079E0E91934225DA5824019D744345
S214003A70F1008D4200DB99E0292E21D88C4500DC30
S214003A8043E1029D4946A8464118414411910499D4
S214003A9014938846A044414613911900572904D828
S214003AA0119B5D5C002D00D0B1E101318A42F5D159
S214003AB0149BD11A0818711CB34506D00E00D2E725
S214003AC0D11A0818711CB345F8D19346039A90464C
S214003AD0930043445B00454A43449B5C181E00D158
S214003AE0E6E00D9B0F999C466144089101310A9AC5
S214003AF00A913D49944689460721019159463E4D13
S214003B00109B0B9129786344099302220223002418
S214003B1083467F2900D9A2E008998C4669786244DA
S214003B207F2900D9A4E029797F2900D9A0E01800D0
S214003B30099B98464044010003908B4234DA58268D
S214003B4049465E4304918F1921006446A8468C4678
S214003B505D1C944201DA292B0AD9039BAB4223DD74
S214003B602B00583758365D1C9442F6DA292BF4D8C9
S214003B7023000294572B10D8E7242401A246F018FD
S214003B80C11049445144019C09782040014101205C
S214003B90084258D1F95C002955D101339A42E9D13F
S214003BA0039B029CAB42DBDC012023E78C4525DD32
S214003BB0292E85D8029D4946A846411841441191B0
S214003BC0049914938846A044414613911900572936
S214003BD004D8119B5D5C002D00D005E101318A42BE
S214003BE0F5D165E71472010058110020007101003C
S214003BF098210020CC3300202C720100292E00D9F9
S214003C005EE7029D4946A846091841441191049969
S214003C10129D8846A044414614915421A8467143FB
S214003C204144139119001593572905D8119B5B5CE5
S214003C309A46002B00D080E001318A42F4D1159BD1
S214003C40D11A081837E76446454601341D355C45E9
S214003C5014DA2978AA78EB787F2900D85CE70899E7
S214003C608A1A6978013294460A9A7F2900D85AE758
S214003C700999CB1A0131013303915EE70B9B059A34
S214003C809B46079B934200DBB3E6744B5A689B68DF
S214003C9011009C46C82363440193D3100B936346DC
S214003CA0DB1041310C936E4BFF31089209910E9355
S214003CB007235825079E9946063B7543984659465E
S214003CC004E0059B01365835B3425BDD069B8B420C
S214003CD0F7DA292EF5D8049A5419572B11D8049FD1
S214003CE00022BA46E7275819E2543F01C210524450
S214003CF0BA464F4638404746874052441078B84345
S214003D00107001339942E8D1DBE7029D4946A84688
S214003D10411841441191049914938846A0444146A1
S214003D2013911900572904D8119B5D5C002D00D013
S214003D3080E001318A42F5D1BAE65546149B0F1948
S214003D405D54049BFD109846E7231B0145449846A6
S214003D5007231F40063BBB4045442F789F43089BE4
S214003D602F70CD00AB4200DD66E7099BAB4200DA60
S214003D7062E753465F013B4B4D009846139B474412
S214003D805F5359E72A220C9B08005A430B9B354E7B
S214003D9098460E9B424452009A1A54230799994615
S214003DA0904604E0059B01318B4200DC21E6069B31
S214003DB08342F7DA2929F5D84C464C43CF004444D1
S214003DC0572B0DD8089DDA00AA4209DB099DAA42A6
S214003DD006DC674504DB019A974201DC5A00A652CE
S214003DE001339842ECD1DDE7139B0F195D54049B19
S214003DF0FD109846E7231B014544984607231F40BD
S214003E00063BBB4045442F789F432F70E6E6139B46
S214003E100F195D54049BFD109846E7231B0145448B
S214003E20984607231F40063BBB4045442F789F43D8
S214003E302F703AE6139B0F195D54049BFD109846AD
S214003E40E7231B014544984607231F40063BBB401B
S214003E5045442F789F432F706BE7C046982100207B
S214003E60CC330020583C0020F0B5DE464E46454692
S214003E7057460400E0B5C94A91B00021C84BC9486E
S214003E8098472000C84B9847C84B9847C84B152101
S214003E909B46984715310BB202930A230593093BBC
S214003EA0089300230B9303930A33069300230025FD
S214003EB00193994609930F3304930DAEBB4B984775
S214003EC06421D847099A03980523824200DB002321
S214003ED06A4606981424125F089C2930002C00D0ED
S214003EE0E7E0029B132900DC22E1834200DDE6E0E6
S214003EF09A4200DB7CE10323049A1A430A230492C5
S214003F0006930A230593099A131C1000039A9042FD
S214003F1000DD131C1BB20993AB005B195B00A54ABE
S214003F205D192B00944663440A930223C846079300
S214003F300A9CA14B21000B2230009847049B247852
S214003F40DB439A46994B98472100D8479B4A7118FD
S214003F5094460F224D78335DEF004B707B1B9B0021
S214003F605B1963441B7F013C13405246E4B21A427D
S214003F7017D1934A5B009B5E994643465A2B36DC24
S214003F800E23FF3399452EDC4B4642469B1A019A78
S214003F9094468C4A6344934203DB0E22FF329342DC
S214003FA037DD002CCED101236A4608980699434097
S214003FB0DBB229311424125F002800D089E0029871
S214003FC0814200DBA6E0824200DBE0E009220492A8
S214003FD00E3A06920A220592079A012A11D0012269
S214003FE008930792A4E74B46693BFF3BCDE70E23B9
S214003FF0FF339845C8DD4B465A2BC5DC6933FF3383
S214004000C3E7002011B03CBC90469946A246AB469A
S214004010F0BD2A00029903986B4B9847002C36D0C7
S214004020002800D18EE743465A2B36DC0E23FF339A
S214004030994500DD84E04B4642469B1A019A7F1B59
S214004040944663441BB201935C4B0B9A9C46BF009C
S21400405018237F1967449446FB5663449BB21AB2F2
S21400406018000B9303921923029AFB569446634456
S2140040701AB2030064339BB20292BB2B00D9C5E090
S214004080039B002B00DB19E70923049316E700289F
S21400409000D188E743465A2BC8DD0E23FF339845E8
S2140040A0C9DD4B465A2BC6DC42466933FF339B1AA2
S2140040B0C4E78B4217DD029B834200DC8DE0029B47
S2140040C09A424DDA052304930A3B0693002308938D
S2140040D017E70298814224DA82424BDA05220492DC
S2140040E00A3A069276E7029B834209DC9A4200DA95
S2140040F001E70A23069305330593053B049302E77D
S214004100029B9A4222DA092304930E3B0693063357
S2140041100893F6E6824234DA0B220492013A0692BB
S21400412058E7824252DA072204920332069251E797
S2140041308342E5DC9A4254DB0A230693093B09E0F6
S2140041404B464246693BFF3B9B1A77E705235B429B
S2140041500693063308930E330593053B0493D2E685
S21400416005235B420693002308930F330593093B10
S2140041700493C8E60F220592143A06920B32049274
S2140041802AE70F220592053A0692049224E70F22A8
S2140041900592143A06920F3204921DE73E10000074
S2140041A01B5F010058110020211F0100B91E0100ED
S2140041B0C15B010000710100095F0100147201007B
S2140041C0F06E0100F3FEFFFFFD3800000F2205929F
S2140041D0053A0692043A0492FEE69A420FDB0A2358
S2140041E0C0E70B230493013B0693093B089388E63C
S2140041F00A23069305330593093B049383E60B23B2
S2140042000493013B0693002308937AE6039B572BFF
S21400421000DCF6E64B4B59689B680A004132FF32D9
S21400422008921A00C83209930A92DA102A235343D6
S214004230CA109B18444A5B00D31A06930023434ACD
S2140042409B46924605915A46032313400133049336
S214004250D30003935300069A0021944663440793C1
S2140042600023984601339C46FE33994643465A46F9
S2140042700193E7242401A046CBB20293344BD0101E
S2140042801B1843441C780725260015402E41B046CF
S214004290664647462E4B9B5C3E4204D08026760000
S2140042A033434E4633405646F356012B43D0032B3A
S2140042B03AD0002B0BD0013158322A29D9D101230C
S2140042C09C46E3445B46582BBDD101209AE6019BF1
S2140042D0002BF0D00323029E1E40049BB600984697
S2140042E01B4B46449E549846E7231B014044984681
S2140042F06346AB4040449C430470059B039883424E
S2140043001DDC089B83421ADB0998CB00984216DC1A
S2140043100A98984213DB0F4B7601984654234B437A
S21400432007984644C652C6E7019B002B00D168E6B4
S21400433000230193BFE7019B002B00D061E6012319
S2140043400193B8E798210020CC330020788F020034
S21400435058110020583C0020F0B5C64600B50500B0
S214004360837C40200E00184043D103241C4026D1F5
S214004370591E012941D919007F31C9B201295CD8DB
S214004380012E00D1E5E0812B00D1BEE0822B38D192
S214004390022E00D1AEE0032E39D180235B02AB6043
S2140043A07D4BEB6000232B828433AB741B0720D538
S2140043B000262B7C0133DBB22B7430001AE0002978
S2140043C0D6D1802213400133AB746974A9601B07F1
S2140043D0F3D52B7C0133DBB2012BEDD900226B7CAD
S2140043E02A740133DBB20F2B00D8BAE06A743000AF
S2140043F000E0002004BC9046F0BD022E34D0012B15
S2140044001DD0022B00D19EE0002C00D0C0E0590742
S21400441030D4082018402DD19B07EBD52B7C0133D8
S214004420DBB2012B1ED900226B7C2A740133DBB26F
S2140044300B2B00D98BE06B74DCE7012BA3D1012E8C
S21400444000D191E0032EE2D17F229343042213434E
S214004450514AAB74EA6000222A82504AAA609A0740
S214004460A4D501232B74C5E78123AB7400236B749A
S214004470AB60BFE70623E85E50230130FF33EE68EB
S21400448098422ED80223E95E454B994257DD190023
S2140044905823E727C4106343CC101B19414C3F0137
S2140044A0A446B846DC1064444444277807241C40DD
S2140044B027416446E45CFB0702D580235B001C436F
S2140044C0072303404F079B006401BF0F1B193648A4
S2140044D0DB19C35CC90741D51B09002B01D0002E90
S2140044E008DA324B1978324B49015B18DB681B8CB3
S2140044F09E19EE6002262F4B110028009847AB7CD1
S2140045001E40002E8AD1060061E7022E39D0032E07
S21400451000D07EE75AB211007F2399430B00042196
S2140045200B431D49D217E9600021298280218902A8
S2140045300A401A49DBB28C46AB7462448EE7CB4322
S214004540DB171940A4E7012E00D07BE7D2E76A7498
S21400455050E70023AE746B74AB604BE70F210B4043
S214004560BBE76B74300045E7002301362B82124B05
S214004570AE74AB6011000F4B28009847AB7C1E4012
S214004580BFE700232B828233AB7480231B02F0E745
S214004590032E00D03BE7BDE70000FDFF0000FFFF55
S2140045A0BF02000058110020583C0020220C0020BA
S2140045B06C880100812500000080FFFFF0B5DE4614
S2140045C057464E464546E0B5984B89B09847984BB7
S2140045D098475023974AD25C002A00D1CFE09549ED
S2140045E0013BCB5C944906910021079193498B4689
S2140045F0002B00D1BAE000230593914B98479149D0
S21400460002008C46904B914C1B785B01634416204D
S214004610185ED3171438C117A0478D4A8D4C002357
S214004620A0470A2300241B184C4102930394844B92
S2140046309847854B02001B78844E59018C46814B67
S2140046400491634418255D5F834B28001C780A3864
S214004650001BD317C117B0477D4A00237D4EB047D5
S21400466002302C1B8442C8DB029B7C4A934200DC4F
S2140046708CE01300DA1092465A07920F91460122F8
S2140046801A4000D086E05023FF339C46413BFF3B58
S2140046900093534607264D46684F0193604528D839
S2140046A05821C3104B43019988464344F95C894618
S2140046B0D9108A46E72109018846BA44C2445146C1
S2140046C00978334019410B000121194204D080219A
S2140046D04B4649000B4399464946330049018946F3
S2140046E003409B005E494B445B19CB5C0099194222
S2140046F003D1013001328442D0DA072A00DC7CE79D
S214004700844200DC79E7029D039E059A069B944648
S214004710544F1B7A2C046344BC465900CA18D20076
S2140047200004BC50624450604648049A8446624482
S2140047301620105EC20F12185210D017864202DCE6
S2140047406DD195426BD9474ACB1894460122DB00BF
S21400475063449A744F23059A364901320592CB5C1E
S214004760934200DD49E7502232498A5C0799069851
S21400477001311C30079106908A4200DD38E709B007
S2140047803CBC90469946A246AB46F0BDDA43D217EB
S21400479013406FE758239846573B9C46534650278E
S2140047A000934B4600220725FF370193B84231D8C5
S2140047B04146C3104B43009989464B44D91089465D
S2140047C0E72109018A46D944D144494609788A46F0
S2140047D029001940894651464E4631418A46594677
S2140047E0CB5C5146994663460B4204D080214B462B
S2140047F049000B43994649462B0049018946034028
S21400480001999B004B44894615494B44CB5C1B09D8
S21400481000D072E7013001328442C7DA6DE7114AF0
S214004820CB189446DB006344812292E7ED0D01002D
S214004830211F010098210020F0210020581100209F
S214004840B91E01006C880100220C0020515C01009A
S214004850FFFFFF7F095C010010000020BF02000080
S214004860583C002064230020F0B54546DE465746F7
S2140048704E468046E0B58BB003938C46069216985B
S2140048801300424500DC0EE142469B1A04930123C6
S2140048900893039B634500DCFEE06246D31A05934B
S2140048A001230993059A049B914650224B44079393
S2140048B0BA4B40279A5C01924F229E5C093A9B5C59
S2140048C0029380239B029A46019B002B3ED0B44B5A
S2140048D06546994600239B46002E2DD04B46029AED
S2140048E01B7A5A454DD15A00D218AE4BD2009C4680
S2140048F000246244AC46937C1F4218D10223D15E4A
S2140049004346591A0625535F6546043BEB1A5B433C
S2140049104943058A5B189D4209DB4B465B7AA342F6
S21400492000D0ABE0514603680B4200D1A6E001344C
S2140049301832A642DFD8654601239C461B33E34463
S2140049409C46019BE1445B45C6D8AC46069B984511
S21400495000D1F8E0079A059953008B4208DB894698
S2140049604A440792089A9146049AC8449342ABDC9C
S214004970049A079B91464B440793099B9946CC445F
S214004980A2E75A008749D218D2008C18A17C0F42A1
S21400499000D190E0012ECFD0591C4A005218814910
S2140049A0D2008C18A17C0F4200D1A8E0022EC3D002
S2140049B0991C4A0052187B49D20089188C7C2742E1
S2140049C000D18AE0032EB7D0D91C4A005218754988
S2140049D0D20089188C7C274200D1CCE0042EABD0C4
S2140049E0191D4A0052186F49D20089188C7C27423C
S2140049F000D1AEE0052E9FD0591D4A0052186949D5
S214004A00D20089188C7C274200D18AE0062E93D0EB
S214004A10991D4A0052186349D20089188C7C274297
S214004A200ED1604CA25844461214A21A0624095FFE
S214004A3052430439691A49435118028A91421CDDCF
S214004A40072E00D178E7DA1D53009B18554ADB0085
S214004A50D218917C0F4200D06EE75249CB5841469F
S214004A601B14CB1A0621525E5B43043AAA1A524321
S214004A70018A9A18914200DA5EE7AC464246149BD9
S214004A8001201A606246159B1A600BB03CBC90462B
S214004A909946A246AB46F0BD62469B1A0593012393
S214004AA05B420993FEE64346069A9B1A049301234B
S214004AB05B420893EDE63B49895842460914511A71
S214004AC00622A25E4943043AAA1A5243048A52189E
S214004AD0944200DA5EE7AC46D0E7324CA258444631
S214004AE01214A21A0624095F52430439691A49436C
S214004AF05118028A914200DD64E7AC46BEE72949B8
S214004B00895842460914511A0622A25E4943043ABD
S214004B10AA1A5243048A5218944200DA46E7AC4670
S214004B20ACE7204CA25844461214A21A0624095F89
S214004B3052430439691A49435118028A914200DDEA
S214004B4064E7AC469AE7039B9C4500D002E700204A
S214004B509BE7144CA25844461214A21A0624095F76
S214004B6052430439691A49435118028A914200DDBA
S214004B7040E7AC4682E70B4CA25844461214A21AF1
S214004B800624095F52430439691A49435118028AB8
S214004B90914200DD22E7AC4670E7C046982100202F
S214004BA0F021002064230020F0B54E46DE4657462E
S214004BB045469146E0B587B0029001910593484579
S214004BC000DBBBE04A46131A0093012304930B0054
S214004BD005998B4200DBABE05F1A01230393009B31
S214004BE0019CDE195023FF339A46493BFF3B98460B
S214004BF0063B9C460298544533D8774B984202DCD5
S214004C00C343DB1703405822E1105143734ADD10BB
S214004C109346E72249191201CD105D449346424659
S214004C205D442D780A4015416C4A525C93466246B4
S214004C302A4204D080215A4649000A43934603225A
S214004C405D1015405A464146520193462140890060
S214004C50634A59444919515C62461A4216D00909FA
S214004C6017D1484559D07300BB4207DB049A02901F
S214004C708118009AF61908009342BCDC009B019448
S214004C809B46039B5E449B465C44B4E70F23194057
S214004C90E7D0109B0299019A1960119B94461A60FE
S214004CA0039B1C005023FF3364449A424ED88C4624
S214004CB0049B494963448B4200DC7DE00B0058218D
S214004CC0D010464A41439446E722D81009181201EC
S214004CD0C8106044944660440578072008400541A3
S214004CE03E4A505CEA0702D5802149000843072166
S214004CF0019A5D07114089004001AD0F0918384A36
S214004D004919515CDB075BD5090900291ED05023E1
S214004D10FF3301209C421ED903E0059B9C42A2D192
S214004D20002007B03CBC90469946A246AB46F0BD74
S214004D300123019A5B428F1A039350E74A46831A6F
S214004D40009301235B4204930B0041E75023FF339B
S214004D509C423FD80020204B029A9A4202DCD34362
S214004D60DB17134058211D4AE5109446E722694395
S214004D70DD104919CD101201654494460726654496
S214004D802D780E403541154A515CEA0702D580223F
S214004D90520011430722224049015D079200521833
S214004DA0AD0F0F4952198A5CDB0710D51209002A8D
S214004DB009D002231843B4E7D943C9170B407EE74E
S214004DC00F231940A1E70028ABD10330A9E70F2332
S214004DD01A40ECE70320A4E7BF02000058110020A9
S214004DE0583C0020F0B54546DE4657464E46E0B5F0
S214004DF0984683B0824248DD0123161A4446884509
S214004E003EDD0D1B0124A446224F7419BA460093BA
S214004E1029291BD8572819D858274F43B946814403
S214004E204B46DF10E7231B019B4657445F443F7801
S214004E30072301974F463B40019F1F4101233B42FA
S214004E401CD153464F46DF5D002F17D190420BD042
S214004E506700AF4205DB009B641999464844B74299
S214004E60D6DCA4196144D3E74145F1D1002003B054
S214004E703CBC90469946A246AB46F0BD0120F6E7FC
S214004E80651A01246442A446BEE70123861A5B42E3
S214004E90B4E7C04658110020F0B557464E46454682
S214004EA0DE46E0B5A3B020932CAB1F9204CB1D903A
S214004EB01B881C921093E24BE24A99461B681E918F
S214004EC09BB20C933323D25C13019A18DE4B9200EC
S214004ED09B182E331B780593DA4B9F8D5B690A93DC
S214004EE0D84B9B690693D74BDB689A46D54B524600
S214004EF01B6912140B931B141B931EB24F231A929A
S214004F0015B2D04AD35C98464623D35C42460393F8
S214004F10002A01D101F0ACF8D900CC4ACB1A9B008C
S214004F20D45C601E84414046E4B21994012823D024
S214004F30D3185878A446431E984184446046444695
S214004F401990022C18D0039BCB1A9B00D3189B7881
S214004F50002B03D063460133DBB219934346032B81
S214004F600AD0039BC91A89005218D378002B03D0A5
S214004F70199B0133DBB21993B54BB24A1978432318
S214004F80D356EA171B01159307231A405519EA1042
S214004F901792F21713409E19F31018935023A94A3C
S214004FA04901D35C04933223D35C02974746169399
S214004FB0A84B5B180F936B461A894B4610991B68D3
S214004FC00D928B4201D301F08BF8A34B9A4201D984
S214004FD001F0EDF84B460C9A1B689A4200D9D1E2D4
S214004FE04B461B68059A9BB20C930B9B06989C46F7
S214004FF0604494460314019393000793974A6344CE
S214005000DB00D2580F9D0A9C009218216A5E544419
S2140050100894099026141204824200DA1AE28F4994
S2140050208C466344203319780A045242A24200DDBB
S21400503010E21623EB5E5B181B04A34200DA09E2BB
S214005040002800DAFEE1009BDB0704D5159A0A9BD0
S214005050944663440A931423009A134200D004E251
S214005060009B9B0700D57DE300239B46009B1B0708
S21400507000D5A7E2009BDB0501D501239B46059AD8
S214005080079B9446754A63449446DB00009A634443
S2140050905B8A120501D5169A5343029A934204DAA4
S2140050A0009B1B0601D500F0F3FC029A0D9B013213
S2140050B00292089A01339246099A9BB20B925A467C
S2140050C0002A00D177E70A93049BB846002B01D14B
S2140050D000F0E8FC8023009A5B021A40089B0192CD
S2140050E01B149B46099B059A1B149946002394465D
S2140050F05A4A02939246069308930093079B00250C
S2140051006344DB009A440E23504E534405934346B3
S214005110002B00D1DFE0019B347A002B00D0FDE0AD
S214005120039B4F4FAB4201D100F01AFC63001B19E2
S214005130DB00FA18917C490621D4F9585B4609141D
S214005140C91A0623D25E4B46043AD31A524649433E
S2140051505B435B189189994201DA00F012FD508991
S2140051603378984201D800F022FD98B2029B0133B2
S214005170DBB20293009B9C46604483B20093434696
S214005180012B00D1A7E0621C53009B18DB00FA1825
S214005190917C49062FD45946FB581B145B1A0621EE
S2140051A0525E4946043A521A52435B439B18524693
S2140051B09189994201DB00F015FD059A00201288BE
S2140051C0934213DA504640895B1A0790511A5843A7
S2140051D0244B9847079B181A7378984201D800F01A
S2140051E007FD98B2029B0133DBB20293009B9C46FC
S2140051F0604483B200934346022B6CD0A21C53003B
S2140052009B18DB00FA18917C490637D45946FB58A0
S2140052101B145B1A0621525E4946043A521A524340
S2140052205B439B1852469189994201DA00F007FDCC
S2140052305089B378984201D800F017FD14E0C046B4
S2140052405032002098210020EC740100F02100204C
S214005250220C00206C880100390200002C79010025
S21400526064230020F559010098B2029B0133DBB29B
S2140052700293009B9C46604483B200934346032BF4
S21400528029D0E31C5C00E418E40039198B7C5B062B
S21400529021D45B463A591214D21A0623CB5E4946ED
S2140052A0043B5B1A52435B439B18524691899942D2
S2140052B001DA00F07FFC5489F378A34201D300F0B2
S2140052C08EFC9CB2029B0133DBB20293009B9C4691
S2140052D06444A3B20093049B01351C369D4200DA59
S2140052E015E7B14B0A9A9A8501231C9A1370199BED
S2140052F0069A934201D800F05FFF1D9B0298089A19
S2140053005843209B5343009AC01A1E9B53431F9A30
S214005310C018069B5343C01A00B29FE0039BAB42E3
S21400532000D163E26300A14F1B19DB00FA18917CE1
S214005330490621D45946FB581B145B1A0621525EB7
S2140053404946043A521A52435B439B185246918987
S2140053508B4201DD00F0FCFB53893078834201D894
S21400536000F00CFC029B80B20133DBB20293009B80
S2140053709C46604483B200934346012BABD0621C2C
S21400538053009B18DB00FA18917C49062FD4594627
S214005390FB581B145B1A0621525E4946043A521A01
S2140053A052435B439B18524691898B4201DC00F0C6
S2140053B022FC059A00201288934213DA5046408950
S2140053C05B1A0790511A5843794B9847079B1B1A4C
S2140053D07078834201D800F014FC029B80B201333F
S2140053E0DBB20293009B9C46604483B20093434624
S2140053F0022B00D16FE7A21C53009B18DB00FA18A3
S214005400917C490600D539E75946FB581B145B1AB0
S2140054100621525E4946043A521A52435B439B1891
S214005420524691898B4201DD00F0F0FB5389B0783B
S214005430834201D800F000FC029B80B20133DBB24D
S214005440029316E70698002800DBFCE5009A93070F
S21400545000D5F8E5012300201C9A137023B03CBC4D
S21400546090469946A246AB46F0BD019B320018997D
S2140054701798504CA047002800D1F1E51A9BB3427C
S21400548001DA00F0A7FC9B1B984601235B421393AE
S21400549001991B9B8B4201DB00F0A6FC5B1A9C4625
S2140054A001231493454644461B981A996544129066
S2140054B0119121970E965023FF3398423ED83E4BCB
S2140054C0994202DCCB43DB170B405827C2107A43C5
S2140054D0DF10B8464244D710B846384FBB46E727D9
S2140054E03F01D844BB46D84447463F78B8460727CE
S2140054F01740BB4647465E463741304EB25C934641
S21400550001223A4203D05E46FF321643B3460327D3
S2140055105E465A10174007227601B346B846024048
S2140055209200274E5A444244B25C01261E4201D1E4
S21400553000F0A8FC120901D000F0A9FC4B461A683E
S214005540FC235B009A421DD80E9B8B4201D100F0D3
S21400555060FD6B00634504DB139A11919046654429
S2140055604144A342A7DC149B129098465023404423
S214005570FF332D199842A2D94B461A68FC235B00CC
S2140055809A42E1D9084B0D9A9A855246064B00205E
S214005590DA600B9A1A610A9A5A61069A9A6100238F
S2140055A01C9A13705AE7C0469821002064230020F6
S2140055B0F5590100E54D0000BF020000581100201B
S2140055C0583C0020049B002B00D153E55B46002B83
S2140055D000D04FE5089B05991B149C46099B8846FE
S2140055E01B140E938023009A9B021A400B92079A74
S2140055F063464244D600D34A019390460E9B4644E7
S2140056005A4600204024B0469C46CF4DCF491192C2
S214005610002F00D19EE00B9A2B7A002A00D148E298
S214005620039A824200D048E25A00D218D2008E185E
S214005630B246B67C34421BD18A58019E1214B21A66
S21400564056460E920622B65EB24604267642B3460A
S214005650DA4452466646B61A7643B24646460E9A2E
S214005660368A52435244B24202DC6A7A002A6ED12B
S214005670012F6FD05A1C924652005244D2008E1808
S214005680B246B67C34421BD18A58019E1214B21A16
S21400569056460E920622B65EB24604267642B346BA
S2140056A0DA4452466646B61A7643B24646460E9ADE
S2140056B0368A52435244B24202DC6A7A012A46D102
S2140056C0022F47D09A1C924652005244D2008E189F
S2140056D0B246B67C34421BD18A58019E1214B21AC6
S2140056E056460E920622B65EB24604267642B3466A
S2140056F0DA4452466646B61A7643B24646460E9A8E
S214005700368A52435244B24202DC6A7A022A1ED1D8
S214005710032F1FD0DA1C53009B18DB00CA18967C98
S214005720344212D1CB58019E1B14F31A0626925F00
S2140057306646043AB21A52435B439B184246128AA4
S214005740934202DC6B7A032B01D1042F02D0012393
S2140057509B468FE4049B0130834201DC00F062FC30
S2140057601C3555E700239B46069B002B30DB502359
S2140057700199FF33013199422AD8754B9E4231DD9B
S214005780E72458222401A4460724C8104243D81010
S2140057901218704DD010281860440078144020412C
S2140057A0AC5CC20702D580225200144307220A408E
S2140057B0580792006401800F1219674912188A5C14
S2140057C0DB0700D520E20F231A40002A00D04DE464
S2140057D0069A0F9B9446DB6801931B8C9C44634699
S2140057E0069343E4F343DB173340C9E7737A079322
S2140057F0002B01D100F01AFC6300544F1B19DB008C
S214005800FA18917C49061FD45946FB581B145B1A9C
S2140058100621525E4946043A521A52435B439B188D
S214005820524691898B4200DD00E3508933789842D6
S21400583000D80FE398B2069B0133DBB20693089BB1
S2140058409C46604483B208934346012B00D142E550
S214005850079B621C012B01D100F00EFC53009B1825
S214005860DB00FA18917C490622D45946FB581B14D3
S2140058705B1A0621525E4946043A521A52435B436B
S2140058809B1852469289934201DD00F0D8FB53469E
S21400589058897378984201D800F0E7FB98B2069BC7
S2140058A00133DBB20693089B9C46604483B20893A0
S2140058B04346022B00DC0EE5079BA21C022B01D1FF
S2140058C000F0F0FB53009B18DB00FA18917C4906A9
S2140058D000D4FCE14346032B00DCFCE4079B0334C6
S2140058E0032B00D1F7E463001B19DB00FA18917C48
S2140058F0490600D5EFE45946FB581B145B1A0621EF
S214005900525E4946043A521A52435B439B1852462B
S21400591092899A4200DBA2E0059900240988994200
S21400592000DCA7E0504644899B1A6343891A180096
S2140059300A4B9847F378241AA34200D295E0A4B203
S21400594098E0C0462C790100F02100206423002056
S214005950BF02000058110020583C0020F5590100F5
S21400596063001B19DB00F9188A7C52061FD4FA580C
S2140059705B461214D21A0623CB5E4946043B5B1ADA
S21400598052435B439B1852469189994200DA33E2B0
S21400599053893078984200D342E2069B80B20133A6
S2140059A0DBB20693089B9C46604483B2089343464A
S2140059B0012B00D18FE4621C53009B18DB00FA1801
S2140059C0917C490620D45946FB581B145B1A0621C5
S2140059D0525E4946043A521A52435B439B1852465B
S2140059E09289934200DD37E2534670785B898342A2
S2140059F000D845E2069B80B20133DBB20693089BD3
S214005A009C46604483B208934346022B00D162E46E
S214005A10A21C53009B18DB00FA18917C490600D4A0
S214005A2026E14346032B00D155E4033463001B19DB
S214005A30DB00F9188A7C520600D54CE4FA585B461F
S214005A401214D21A0623CB5E4946043B5B1A524315
S214005A505B439B18524692899A4200DA5CE75346AB
S214005A605C89F378A34200D369E79CB2069B0133B6
S214005A70DBB20693089B01359C466444A3B20893A8
S214005A80049B1C369D4201DAFFF741FBFFF729FC19
S214005A900D9BB84601339BB20A93049B002B01D0A2
S214005AA0FFF718FB00230293069308930093FFF773
S214005AB018FC039A824200D09AE3DA4E5A00B246A5
S214005AC0D218D20092445646B67C344200D149E100
S214005AD0012F00D13EE65A1C9246D24E5200524446
S214005AE0B246D20092445646B67C344200D11DE1FE
S214005AF0022F00D12EE69A1C9246CA4E52005244FD
S214005B00B246D20092445646B67C344200D145E1B5
S214005B10032F00D11EE6DA1C5300D318C14ADB005F
S214005B20D218967C344200D00FE6BE4EF358019E43
S214005B301B14F31A0626925F6646043AB21A5243BC
S214005B405B439B184246128A934200DCFFE5FCE565
S214005B50059A00201288934201DBFFF708FC5046A6
S214005B6040895B1A0790511A5843AF4B9847079BDA
S214005B701B1A3078834201D9FFF7F4FB98B2FFF77F
S214005B80F6FB059A002012889A4201DCFFF7F2FA2B
S214005B90504640895B1A0790511A5843A24B9847C3
S214005BA0079B181A3378984201D9FFF7DEFA80B2BD
S214005BB0FFF7E0FA059A002412889A4201DCFFF704
S214005BC085FB504644895B1A6343511A1800964B6E
S214005BD09847F378241AA34201D2FFF772FBA4B2C7
S214005BE0FFF774FB50897378984201D9FFF7F9FAEA
S214005BF080B2FFF7FBFA53897078834201D9FFF72A
S214005C00ECFB98B2FFF7EEFB1209DEE5059A0020E2
S214005C101288934201DBFFF72CFB504640895B1A43
S214005C200790511A5843804B9847079B1B1AB07829
S214005C30834201D9FFF700FC98B2FFF71AFB059ADA
S214005C40002012889A4201DCFFF713FB5046408979
S214005C505B1A0790511A5843734B9847079B181ABC
S214005C60B378984201D9FFF7FFFA80B2FFF701FB3D
S214005C705946FB581B145B1A0621525E4946043AE5
S214005C80521A52435B439B1852469289934200DC59
S214005C9005E20599002009888B4212DA50464089B1
S214005CA09B1A0790891A58435F4B9847079B1B1A05
S214005CB0B078834200D82DE2069B80B20133DBB277
S214005CC00693089B9C46604483B20893A9E659460F
S214005CD0FB581B145B1A0621525E4946043A521AB8
S214005CE052435B439B1852469289934200DCD3E1B1
S214005CF00599002009888B4212DA504640899B1A83
S214005D000990891A5843484A9047099B181AB3784D
S214005D10984200D8FCE198B2069B0133DBB20693AA
S214005D20089B9C46604483B20893D3E53D4EB25828
S214005D30019E1214B21A56460E920622B65EB2465D
S214005D4004267642B346DA4452466646B61A764388
S214005D50B24646460E9A368A52435244B24200DC57
S214005D60F5E4C5E62F4EB258019E1214B21A5646F6
S214005D700E920622B65EB24604267642B346DA4451
S214005D8052466646B61A7643B24646460E9A368A55
S214005D9052435244B24200DCD9E499E6214EB2584E
S214005DA0019E1214B21A56460E920622B65EB246ED
S214005DB004267642B346DA4452466646B61A764318
S214005DC0B24646460E9A368A52435244B24200DCE7
S214005DD0BDE49DE6F31A98460123019913931B9B95
S214005DE08B4201DAFFF75AFB1B9A8B1A9C4601235B
S214005DF05B421493FFF756FB059A002012889342E5
S214005E0000DBCFE5504640895B1A0790511A58438D
S214005E10054B9847079B1B1A3078984200D2BCE582
S214005E2098B2BFE564230020F5590100059A0020CA
S214005E301288934200DB02E5504640895B1A0990BF
S214005E40511A5843DE4B9847099B181A33789842E4
S214005E5000D9EFE480B2F2E40599002009888B426D
S214005E6000DBCCE5504640899B1A0790891A5843B8
S214005E70D34B9847079B1B1A7078834200D9B9E525
S214005E8098B2BCE50F231A4001D1FFF757FB149BCD
S214005E90129A1D0050239446FF33219F0E9E6544A0
S214005EA09A4200D90FE11199139B8C4663441A005D
S214005EB0C44B9A4200DC1CE11A00129BC248D9105F
S214005EC058238446E7204B43D1105B180001D910B5
S214005ED06144844661440878072119400841BA495C
S214005EE0C95CC30702D580235B0019430723129CB5
S214005EF0500723409B0049015918800FB34B0818E0
S214005F001C5CD30700D400E124095023FF33002C87
S214005F1000D104E19D4200D905E10124A948119B66
S214005F20834202DCD843C01718405823A649EA101B
S214005F308C46E7215343C2109B180901DA106244CD
S214005F408C466244117807221A4011419E4AD25C60
S214005F50CB0702D580235B001A4307232B409B0008
S214005F60410752019A18890F984B51185B5CC2077B
S214005F7000D4D1E01B09002B00D1BEE0009B5B07DC
S214005F80DB0F9B46059A079B9446914A63449446CA
S214005F90DB006344069A1A20185E8E4DD317C1178D
S214005FA0A8474904C00B084300218B4B8B4A1B1A99
S214005FB00691934201D943420693059A079B94465D
S214005FC0834A63449446DB0063441820185E0A9AAA
S214005FD0C117D317A8474904C00B0843002C76D135
S214005FE07D4BC2187D4B93429B4118400A90119BF3
S214005FF01B040893129B1B040993009B9B0701D468
S214006000FFF734F8069B002B01DBFFF72FF8FFF7AE
S214006010DFFB019B834201D0FFF79BFA219F0E9E78
S214006020FFF71EF8119B9B46FFF724F84346012B0B
S21400603001D1FFF750F9621C694FFFF70FFC059975
S214006040002009888B4201DBFFF72DFC5046408973
S2140060509B1A0990891A5843594A9047099B181A5F
S2140060607378984201D9FFF719FC80B2FFF71BFC42
S21400607000231993FEF780FF4346A21C022B01D192
S214006080FFF729F953009B18DB00FA18917C4906A4
S21400609001D5FFF71FFC1AE65346588937E65346E4
S2140060A05B8905E643460334032B01D1FFF713F95A
S2140060B063001B19DB00FA18917C490601D5FFF72F
S2140060C00AF9FFF718FC9D4219D8002426E7424A31
S2140060D0424B121A93429B41414219400A9186E76D
S2140060E0404B9A85404B9A4201D9FFF7B3F9FFF728
S2140060F04CFAD343DB171A40DFE6002C13D1009B83
S21400610001245B07DB0F9B463CE70F231C40FCE6A5
S21400611080B205E698B2D4E50F2213402BE79D42E5
S21400612000D8FBE6EBE7059A009B94465B07DB0F7F
S214006130274A9B46079B274D63449446DB006344EF
S2140061400A9A1820185ED317C117A8474904C00B2F
S21400615008430021204B214A1B1A0A91934201D979
S21400616043420A93059A079B9446194A6344944609
S214006170DB006344069A1A20185ED317C117A84797
S214006180154B4904C00B0843C218144B93429B415D
S2140061901840119B06901B040893129B1B0409933E
S2140061A0009B9B0701D5FFF7DFFAFEF75FFF0D4B5D
S2140061B00D9A9A85FFF74EF90C48FFF74FF9C0463F
S2140061C0F5590100BF02000058110020583C00207D
S2140061D02C790100515C0100FF0F0000FE1F00003B
S2140061E06423002098210020390200000080FFFF71
S2140061F0424E5A00B246D218D20092445646B67C58
S21400620034421BD13D4EB258019E1214B21A564665
S2140062100E920622B65EB24604267642B346DA44AC
S21400622052466646B61A7643B24646460E9A368AB0
S21400623052435244B24201DCFFF789FA012F01D1E2
S214006240FFF788FA5A1C92462C4E52005244B24629
S214006250D20092445646B67C34421BD1274EB258E2
S214006260019E1214B21A56460E920622B65EB24628
S21400627004267642B346DA4452466646B61A764353
S214006280B24646460E9A368A52435244B24201DC21
S214006290FFF75DFA022F01D1FFF75CFA9A1C9246CF
S2140062A0164E52005244B246D20092445646B67C2F
S2140062B034421BD1114EB258019E1214B21A5646E1
S2140062C00E920622B65EB24604267642B346DA44FC
S2140062D052466646B61A7643B24646460E9A368A00
S2140062E052435244B24201DCFFF731FA032F01D188
S2140062F0FFF730FA03335A00FFF70FFC6423002041
S214006300F0B557464E464546DE464523E0B5C94DF0
S214006310C94FEB5C8FB09A465246C3001C1AA400C5
S2140063203C19984606008946A37E082A20D0802B72
S21400633007D000200FB03CBC90469946A246AB461C
S214006340F0BD4C3BEB5C9B46012B14D05BB2039339
S214006350002B17D05B46022BEBD15346032A0DD1F8
S2140063604533EA5C173BEB5C67209A4206D2E1E7CE
S2140063700023AB86DDE7022A00D12DE1342300227C
S214006380EA54D6E7237A1A0053464A440492022B6C
S214006390CFD194465300A94A059363449446DB0044
S2140063A063449B7C9B07C4D0A54B984783B2069357
S2140063B04723039AEA54A24BAA85984731238000C4
S2140063C0E8549F4B98473023E8541A33EB5C03930A
S2140063D0002B00D1B9E19B4C994B98470521A0476B
S2140063E032230131E954069A974B9A4200D833E19A
S2140063F03523EB5C002B00D02EE108AA1370434631
S2140064009B1B9B00FB181B7A31244B445900C91870
S2140064108A4B03929C467F22C90061448B7C2C5D8C
S21400642093434F3AAA560194332428002C5D0C302F
S2140064300094864CA047FA2380228020FF330193E5
S214006440039B92000093012102234000804CA0474A
S214006450039B1B78002B00D00EE23533EB5C002B41
S21400646000D066E74123EB5C002B00D0AFE0744B16
S2140064709847784B80B2984200DDA8E04A23EC5C4F
S214006480002C00D0A3E043469B1B9B00FB18197A08
S2140064905B7C49444A0052186849D2008A585BB26D
S2140064A003925022AA5C06939346002A00D107E284
S2140064B04F230020E95C3A00002381468246B4461A
S2140064C09C4572D0002970D01078002816D0107A1B
S2140064D00134460036185948F60080590596039E42
S2140064E00490801BC6178019E4B27040504505DB47
S2140064F0524EB146059EB246D1448246012954D931
S2140065005078002817D0107A01340130460036182B
S2140065104A48F60080590596039E0490801BC617CD
S2140065208019E4B27040504505DB444EB146059EE6
S214006530B246D1448246022937D09078002817D038
S214006540107A01340230460036183C48F60080596E
S2140065500596039E0490801BC6178019E4B270400F
S214006560824505DC354EB146059EB246D14482468C
S21400657003291AD0D078002817D0107A01340330B7
S214006580460036182D48F60080590596039E04905E
S214006590801BC6178019E4B27040504505DB274EB5
S2140065A0B146059EB246D14482460133DBB21C3268
S2140065B05B4585D1069B6646002B00D0A2E143468C
S2140065C09E1BB600BF19BB7CA34200D37CE13423DC
S2140065D001220020EA54ADE6002308AC2370FA231B
S2140065E080228020FF330193F83BFF3B920000940B
S2140065F001214000164EB047237802000020002BF1
S21400660000D197E6002A00DC33E13323EA5C163338
S214006610EA54193BEA5C1733EA54153BEA5C1B3331
S214006620EA545A46013BEA54673034235246EA5449
S21400663080E6C04698210020F02100206423002038
S214006640B91E0100C15B01008E0200005D2400003F
S214006650994E00002B330000BA4B9847BA4B80B2D5
S214006660984200D8F2E02E23EB5CDB0701D401232E
S2140066709A46049A059B9446B44A63449446DB00C3
S2140066806344DA68586899681C689B7C0B9208AA71
S21400669009900A910894100093740392F5225146CB
S2140066A05200AB4B98470490002800D1DAE0012155
S2140066B02E220800AB5CDA4698438B430343AB5468
S2140066C035230022EA540023039A28001370434619
S2140066D09B1B9B00FB181B7A0C304B445900C918B7
S2140066E09A4B04009C4631207F22C90061448B7C73
S2140066F0285C93434F3AAA5601903320285C0090BA
S2140067002000944CA047FA2380228020FF33019378
S214006710039B920000930121022340008E4CA04769
S214006720039B1B78002B00D193E0002800DDA6E039
S2140067305346032B00D1BCE06120012B00D1F9E5C4
S2140067400330022B00D1F5E5F3E50B23E3565A1E82
S2140067509341D9B20C23E3568C465A1E93419C446F
S214006760434662469B1B9B00FB189B7B07925BB2D3
S214006770002B03D063460133DBB2079343469B1BD3
S2140067809B00FB181B7C5BB2002B03D0079B0133DE
S214006790DBB2079343469B1B9B00FB18DB7D5BB27B
S2140067A0002B03D0079B0133DBB20793654B98475A
S2140067B06A4C0799A04743469B1B9B00FB18DB7A55
S2140067C0C9B25BB2002B03D0012300293BD0039350
S2140067D043469B1B9B00FB181B7B5BB2002B06D023
S2140067E0039B8B4200D1A7E00133DBB20393434601
S2140067F09B1B9B00FB189B7B5BB2002B06D0039B6E
S214006800994200D19AE00133DBB2039343469B1BC7
S2140068109B00FB181B7C5BB2002B06D0039B9942A7
S21400682000D18DE00133DBB2039343469B1B9B00F4
S214006830FB18DB7D5BB2002B00D1CDE5039B9942B4
S21400684000D0C9E50D233322AB54C5E503239A4691
S2140068500FE7434B069A9A422DD8049B002B00D094
S21400686000E665E73522AB5C002B1BD0013BAB5442
S21400687029E700239A46D8E6002800DC59E53323AA
S214006880EA5C1633EA54193BEA5C1733EA54153BC4
S214006890EA5C1B33EA540122013BEA544A3BAB86CE
S2140068A0672047E55346032B00D10CE70C23AB5477
S2140068B009E766203EE53523EB5C002BCDD1D1E51C
S2140068C0069B002B1CD19946002335220821AB5489
S2140068D01432A954023AAB544A46126809311214CB
S2140068E0AA874A4652681214EA874522A9540632F5
S2140068F0AB5402222B87FF324C33EA52302019E584
S214006900002399460F4B9847164B80B2984200DDFD
S21400691055E6002335220721AB541432A954023A17
S214006920AB544A4612680A311214AA874A4652687D
S2140069301214EA874522D9E7534684E7042382E700
S214006940062380E7B91E0100951900006423002085
S2140069504D3300005D240000994E0000C15B01002D
S2140069608E020000ED7F0000F0B5454657464E46C5
S214006970DE464923E0B5D74F87B001910490FC5618
S214006980D54BD64D9846230199461B199B00434488
S2140069902E331B780393AA7C59B2002A29D02A23C7
S2140069A0EB5C002B00D178E14223EB5C002B00D19E
S2140069B087E15A23EB5C002B00D185E17223EB5C68
S2140069C0002B00D183E18A23EB5C002B00D1A1E1F0
S2140069D0A223EB5C002B00D19FE1BA23EB5C002BDB
S2140069E000D19DE107B03CBC90469946A246AB4616
S2140069F0F0BD00239B468B00B94A5B18DB00D1181C
S214006A00498CD35809028A469B0605D44823524629
S214006A10FB5C5A4313129A464B461B199B00434491
S214006A205B8D02935B0600D48EE05346594260238A
S214006A3004913C203A5EFF339A4202DC53468A4673
S214006A4004933E23F85EA74B32301A78A64B5201C9
S214006A509B18DB684004198CA44B9847A44B000491
S214006A6098475B465E00F2184B234C44A40044440F
S214006A70F95C230030331B7831344900C91A237877
S214006A805446634301315943CB0F5B180499000CFD
S214006A9041435B105B183C20395ED20009045B184A
S214006AA0AB50944BAA1853600023D36080239460A5
S214006AB0029A5B011A4090464346002B3DD047237E
S214006AC0FA56803253009B18019A1B12DBB2002A3A
S214006AD001D00333DBB2052B28D8874A9B00D35856
S214006AE09F465B461022F318DB00EB18DA7400238F
S214006AF003225E44F600AD192B756B74AA747B876F
S214006B0070E75B461822F318DB00EB18DA74EEE742
S214006B105B461722F318DB00EB18DA74E7E75B46F0
S214006B201A22F318DB00EB18DA74E0E75B4619224A
S214006B30F318DB00EB18DA74D9E75B46F318DB00D2
S214006B40039AEB18DA74D2E74723FE56019B002B14
S214006B504FD04C44A4004444323424788036760027
S214006B60002C51D173000136FF366449B605760D08
S214006B70CA5E895FD3178946C917059102998905A8
S214006B805CD50199002900D082E05D498C46029CC4
S214006B908020260040010640B046A0063ED5594655
S214006BA03C24385F4E007118C900000468503E242B
S214006BB0385F69180438000448605846514634184F
S214006BC0E4002819C91702904E4C50460491A0477D
S214006BD0029B4904C00B084398604A46059B5046F2
S214006BE00499A0474904C00B0843029B4042D86062
S214006BF062E780234C44A40044443234FF332478B4
S214006C009E1B7600002CADD03F4B984761003F4B53
S214006C1098470C1BA619B605B60DA3E7049C20687A
S214006C20002E24D059464E007118C900685060687E
S214006C30374C6918A44660444860BEE7910B94043C
S214006C400198E40B49042143441EA041802440429D
S214006C50240320402A4CA44660448C46494684447B
S214006C60880B89044004C90B014349428FE7029C04
S214006C70240515D5802459466402A4464E00711892
S214006C80C90060446850049869184068486094E7F2
S214006C908020C0021A49844679E701239B46AAE66B
S214006CA05C46660034196044E400285104982C19A8
S214006CB04068029012488446029860444118616019
S214006CC07BE702239B4696E603239B4693E6042334
S214006CD09B4690E698210020EC7401008822002054
S214006CE02C790100220C00206C880100F559010067
S214006CF0B92200000000CEFF406E0100B80402007A
S214006D000000FCFF515C0100B91E0100C15B0100E0
S214006D100000FBFF05239B466DE606239B466AE6BE
S214006D2007239B4667E6C046F0B5DE4657464E4606
S214006D3045469346E0B591B002931AAB1B7808918E
S214006D400A931BAB1A785B4600215B5E0690002B0D
S214006D5000DA85E0029B00215B5E002B00DA7FE014
S214006D60D3009B1A2022C6485B00C1180B90203027
S214006D708E5CC218527805000792002A72D0C14A6B
S214006D805168926808004130FF3005901000049169
S214006D900992C830C910D2100C900D910E92002E98
S214006DA060D00233ED18002398465B46B64F039337
S214006DB00022934607329246063A91464246002300
S214006DC0019202E00133B3423EDAEA5C002AF9D0CF
S214006DD00198039A84461188029AE72412882401AF
S214006DE0624492B2944658226046A04642435446B5
S214006DF05846C91889B25218B854D01022404C468A
S214006E009440381840440278A24302700498CA009E
S214006E109042D7DC05988242D4DC62460998D200BC
S214006E209042CFDC0C988242CCDC62460E9801334E
S214006E30121A0D98091A2A20424394485118944A67
S214006E4049000A52B342C0DB019BAD1998460123A4
S214006E509C46079BE0449845AADB039B9B4601E0C3
S214006E60874B0B930A9B0B98DA00D21A202352000A
S214006E708118CB5C010020318818447801205D46DB
S214006E8040422880029D039428800698002841DB13
S214006E90089D002D3EDBC01858283BDC2800A44681
S214006EA060442A2836DC002C00D1AAE08A4602324A
S214006EB092440022914607329046063A9446069A35
S214006EC054461100704D0494002B2CD0089A0E00E6
S214006ED04A4497B2582257430022019705E0695C5E
S214006EE0002917D1013293421CDDA15C0029F9D09C
S214006EF00198E7278246B1183F0189B25144BA4645
S214006F004746C8102818504400780F403841674656
S214006F100742E4D0002011B03CBC90469946A246F9
S214006F20AB46F0BD310001229246039AD144E418E4
S214006F304A45C9DC049A9246524A5168926808004B
S214006F404130FF300D9007921000D2100A920022B6
S214006F500C91C9100E91594601925246C8300990BC
S214006F600F91002B44D001985824844608990A9D16
S214006F70614489B24C43C800491B2A254D430999F0
S214006F800B95884245DD0799814200DCCDE03E48FE
S214006F90002180460720834606388246A146565C76
S214006FA0002E22D0E72406982401081880B2484410
S214006FB0C5104544A4462C006444277805945C46D6
S214006FC03D0004402541AC4604945546644625429F
S214006FD00BD14446245C002C07D144462654504628
S214006FE0049CA04087430598077001318B42D6DC8D
S214006FF00199039801310191D2188842B1DC0F9BA8
S2140070009B465B46069A01201A80029B089A1A80C5
S21400701081E7079981423DDD072082460638002138
S21400702081460494565C002E26D0049C0698A446FE
S2140070300818154C80B26044A446E724C510240105
S2140070406544A446AC446446277854460440A046AB
S2140070503C0045462C41A3464C465D462C420BD18F
S214007060094C245C002C07D1074C2654444648465D
S214007070A04064468743277001318B42D2DCB7E7D5
S214007080F06E01009821002058110020CC3300201B
S214007090583C002007208346063894460021824646
S2140070A0A1461A0063465E5C002E38D0069B5D182B
S2140070B04B46ADB2EF18364BF8109846E7234044DF
S2140070C01B019846030043441C7805935B4620004A
S2140070D03B401841804604935046434618421ED112
S2140070E02B4BDB5D002B1AD1294B0498DE555346FB
S2140070F083400C989C43059B1C70EB0098420EDC6A
S2140071000D9883420BDC0B980E9B80462148EB1AA9
S21400711043448046760120485B0046441E520131B7
S2140071208A42BFDC1300624662E7194800218046A7
S2140071300720834606388246A146565C002E22D09B
S214007140E72406982401401880B24844C5104544F8
S214007150A4462C006444277805945C463D00044011
S2140071602541AC4604945546644625420BD1444618
S214007170245C002C07D1444626545046049CA0406C
S21400718087430598077001318B42D6DC30E7C0464E
S21400719058110020583C0020CC33002000222E49F5
S2140071A02E4B70B55A87CB789B085A425341CA7902
S2140071B0DBB29208504242419B18CA7A920801D12B
S2140071C00133DBB2CA7B920801D10133DBB2CA7C41
S2140071D0920801D10133DBB2CA7D920801D1013396
S2140071E0DBB2CA7E920801D10133DBB2CA7F9208B5
S2140071F001D10133DBB223228A5C920801D101332C
S214007200DBB227228A5C920822D00025052B1DD9E6
S214007210134EB047B021134B89009847124C134BBE
S21400722009046360124BA5601A78124B52019B1832
S214007230DB6821601B8C6574E36003232575A374EB
S214007240B047012303401333E3740135280070BDB3
S2140072500133DBB2D9E7C046602200209821002027
S214007260B91E0100C15B0100882200200000CEFF8D
S214007270220C00206C880100F0B5DE4657464E46CC
S2140072804546E0B585B0012800D1A8E0A022554BC0
S21400729052005E689B6894461A00C8320392DA1061
S2140072A00293D3069B1A9B009B1A9B009B1A5B00BB
S2140072B0F2109B1A25334C4AFF335B009B18A02222
S2140072C0019330239821920000250120914698468C
S2140072D0464BB4448900039A424553DB0F00029A9A
S2140072E0B246283F0E00424527DCE72109018B46BF
S2140072F00721040039408C40DA191570FA109A18E4
S2140073005A4411780137A1431170B742EDD13100CC
S2140073100C00A02261465646A446019F52009642A3
S21400732003DC914201DB324C3C80083202374A458E
S214007330F5D162468C46110013E0E72109018B4621
S2140073400721040039408C40DA191570FA109A1893
S2140073505A4411780137A1431170B742EDD131007C
S214007360564608229246019AD0445432019242462A
S2140073705831F82AAFD105B03CBC90469946A24693
S214007380AB46F0BD0F00029AB246283F0E004245BB
S21400739012DDE72109018B460721040039408C40A5
S2140073A0DA191570FA109A185A4411780137A14361
S2140073B01170B742EDD1D2E7E72109018B460721CC
S2140073C0040039408C40DA191570FA109A185A449D
S2140073D011780137A1431170B742EDD1BFE7054BD5
S2140073E09847C8E798210020CC3300205811002089
S2140073F0583C0020E9220000F0B5DE464E464546E1
S2140074005746E0B5384B87B0060015000C00984785
S214007410C022331C5200964200D9131C9BB2039321
S214007420231CA02C00D9A0239BB20593DB08029353
S2140074302E4B039A5B88D208049293424CD0582372
S21400744002992B4A4B43049916008A469A44294BC4
S21400745001279B4693445B460193274B274C98464F
S21400746007239C46F9339946543630005146543823
S214007470E7252D01AB466546CA10A2185A44127875
S2140074800D402A41635C174201D04A4613435B0114
S21400749043440380023001318642E9D158239B469B
S2140074A0019B5436DA44B342DFD1104B049A5A801B
S2140074B0029A9A800723039A11491A408A60059A0D
S2140074C01340CB6001222A23CA5407B03CBC904626
S2140074D09946A246AB46F0BD044B029A9B8893425F
S2140074E0ADD1002DABD1E5E70D490100100000201D
S2140074F0CC330020DC080000583C00205811002047
S21400750050320020F0B5DE4657464E46454600232C
S214007510E0B5D5B00C0052935393002801D100F08B
S21400752049FE002C01D100F0BFFD21689F2901DC37
S21400753000F0BCFD9F23802123600368FF318B424F
S21400754001DC00F0BEFD8023FF33036021680029C4
S21400755003DA0023002123600368002A01D100F02B
S21400756080FDA148834658464360816098B289B240
S2140075709E4B98479E4B25681A789E4B52019B1847
S214007580DC68E3686269009323699846A3689946B5
S214007590636801932B119B01D018974B1F690693C4
S2140075A040239C46844463463E00A4460293402300
S2140075B09A46B24453460C9380239A46B2445346A6
S2140075C00F93C0239A46B24453461293731CFF335C
S2140075D00593A0235B009A46B24453460993C02302
S2140075E05B009A46B24453460B93E0235B009A46F0
S2140075F0B24453460E9380239B009A46B2445346A9
S214007600119390239B009A46B24453460493A023BA
S2140076109B009A46B24453460893B0239B009A4672
S214007620B24453460A93C0239B009A46B24453463C
S2140076300D93D0239B009A46B24453461093E02302
S2140076409B009A46B24453460393F0239B009A4607
S214007650B24453460793694B04009A460021B21C75
S214007660B244139023886648023403400C98735241
S214007670138043520F9893804352129813814352BB
S2140076800598938143520998138243520B9893822C
S21400769043520E981383435211989383435204988F
S2140076A01384435208989384435213850A9843528E
S2140076B00D989385435210981386435203989386E9
S2140076C043520798138743529387403204315245FA
S2140076D0C8D18023DB009A461398029B203056447C
S2140076E0984200D063E70F232800644698438542FB
S2140076F05EDDF233FF339C464B46195C43461B5C0B
S21400770009099A029B183F4A8902134062461343AE
S214007710009A9BB2125C7E1891008B5391017118EF
S2140077204B80110010318900920173520432711897
S214007730B2180E004036538033804036D3803380F4
S2140077404036538133804E1CFF36D381338040361B
S214007750538233804036D38233804036538333801F
S2140077608026B6008E19D38333809026B6008E19F5
S21400777053843380A026B6008E19D3843380B02677
S214007780B6008E1953853380C026B6008E19D38571
S2140077903380D026B6008E1953863380E026B60096
S2140077A0B24601305144D3860B8053878542A3D11D
S2140077B0009B06995B190B6243465B19CB614B46EF
S2140077C0019A5B1994468B610F4B5A461B785B19DE
S2140077D09B0063444B624E23D35C013B032B01D9D1
S2140077E000F038FC12E0C04698210020F973000033
S2140077F0220C00206C880100503200200204000099
S214007800FFFBFFFFFFF9FFFF1000002048239C4608
S214007810BC44634612938823984640339C464033C4
S2140078209946B9444B461193A4235B009946B94444
S2140078304B461093C4235B009946B9444B460F93BE
S21400784080231B019946B9444B460322A5692B9316
S2140078502B1D27935B085B421340924631931A0018
S2140078600E2382219E1A130089469B01994449469D
S2140078703D9186218946994449463B918A2189460D
S2140078809944494639918E2189469944494602329F
S21400789090003791411CFF313691922189469944D8
S2140078A049463591962189469944494633919A210D
S2140078B08946994449462D919E21894699444946D0
S2140078C0409180218146890049444191A221894600
